:100000000C945D000C9485000C9485000C94850084
:100010000C9485000C9485000C9485000C9485004C
:100020000C9485000C9485000C94B8020C94850007
:100030000C9485000C9485000C9485000C9485002C
:100040000C9416020C9485000C9486020C946002A9
:100050000C9485000C9485000C9485000C9485000C
:100060000C9485000C9485000000000024002700FB
:100070002A0000000000250028002B0004040404CE
:100080000404040402020202020203030303030342
:10009000010204081020408001020408102001021F
:1000A00004081020000000080002010000030407FB
:1000B0000000000000000000170411241FBECFEF55
:1000C000D8E0DEBFCDBF11E0A0E0B1E0E6EEF8E0A1
:1000D00002C005900D92A631B107D9F721E0A6E143
:1000E000B1E001C01D92A33CB207E1F710E0CDE5FD
:1000F000D0E004C02197FE010E946604CC35D107F0
:10010000C9F70E9408030C9471040C94000090E05D
:10011000FC01EC55FF4F2491FC01E057FF4F349157
:10012000FC01E458FF4FE491EE23B9F1222339F1A9
:10013000233091F038F42130A9F0223001F584B554
:100140008F7D12C0273091F02830A1F02430B9F40F
:10015000809180008F7D03C0809180008F77809395
:1001600080000DC084B58F7784BD09C08091B00038
:100170008F7703C08091B0008F7D8093B000F0E056
:10018000EE0FFF1FEE58FF4FA591B4918FB7F89473
:10019000EC9130953E233C938FBF0895CF92DF9230
:1001A000EF92FF920F931F93CF93DF936C017A012D
:1001B0008B01C0E0D0E0CE15DF0589F0D8016D914C
:1001C0008D01D601ED91FC910190F081E02DC601E9
:1001D0000995892B11F47E0102C02196ECCFC7014D
:1001E000DF91CF911F910F91FF90EF90DF90CF9013
:1001F0000895089580E090E00895FC01538D448DAA
:10020000252F30E0842F90E0821B930B541710F0C1
:10021000CF96089501970895FC01918D828D9817CE
:1002200061F0828DDF01A80FB11D5D968C91928DDA
:100230009F5F9F73928F90E008958FEF9FEF0895D7
:10024000FC01918D828D981731F0828DE80FF11DA0
:10025000858D90E008958FEF9FEF0895FC01918DBB
:10026000228D892F90E0805C9F4F821B91098F73B4
:10027000992708958BE191E00E942E0121E0892BBE
:1002800009F420E0822F0895FC01848DDF01A80F7E
:10029000B11DA35ABF4F2C91848D90E001968F73AE
:1002A0009927848FA689B7892C93A089B1898C91CD
:1002B00080648C93938D848D981306C00288F38993
:1002C000E02D80818F7D80830895EF92FF920F93C0
:1002D0001F93CF93DF93EC0181E0888F9B8D8C8DF2
:1002E000981305C0E889F989808185FD24C0F62E20
:1002F0000B8D10E00F5F1F4F0F731127E02E8C8DB9
:10030000E8120CC00FB607FCFACFE889F9898081A2
:1003100085FFF5CFCE010E944401F1CF8B8DFE0108
:10032000E80FF11DE35AFF4FF0820B8FEA89FB893A
:100330008081806207C0EE89FF896083E889F9893E
:1003400080818064808381E090E0DF91CF911F9174
:100350000F91FF90EF900895CF93DF93EC01888D7C
:100360008823C9F0EA89FB89808185FD05C0A889B9
:10037000B9898C9186FD0FC00FB607FCF5CF80813F
:1003800085FFF2CFA889B9898C9185FFEDCFCE0189
:100390000E944401E7CFDF91CF91089580E090E083
:1003A000892B29F00E943A0181110C9400000895D4
:1003B000CF93DF9390E0FC01E057FF4F2491FC01C5
:1003C000E458FF4F8491882361F190E0880F991FD2
:1003D000FC01E859FF4FC591D491FC01EE58FF4F45
:1003E000A591B491611109C09FB7F89488812095B7
:1003F00082238883EC912E230BC0623061F49FB777
:10040000F8943881822F809583238883EC912E2B5A
:100410002C939FBF06C08FB7F894E8812E2B2883BA
:100420008FBFDF91CF9108950E946C041F920F92AD
:100430000FB60F9211242F933F938F939F93AF93F7
:10044000BF938091BF019091C001A091C101B09173
:10045000C2013091BE0123E0230F2D3720F4019615
:10046000A11DB11D05C026E8230F0296A11DB11DD7
:100470002093BE018093BF019093C001A093C1015E
:10048000B093C2018091BA019091BB01A091BC01CF
:10049000B091BD010196A11DB11D8093BA01909349
:1004A000BB01A093BC01B093BD01BF91AF919F91DF
:1004B0008F913F912F910F900FBE0F901F90189525
:1004C0001F920F920FB60F9211242F933F934F93C9
:1004D0005F936F937F938F939F93AF93BF93EF93AC
:1004E000FF938BE191E00E944401FF91EF91BF9156
:1004F000AF919F918F917F916F915F914F913F91BC
:100500002F910F900FBE0F901F9018951F920F9272
:100510000FB60F9211242F938F939F93EF93FF9316
:10052000E0912B01F0912C018081E0913101F0915B
:10053000320182FD12C09081809134018F5F8F73F0
:1005400020913501821751F0E0913401F0E0E55E31
:10055000FE4F958F8093340101C08081FF91EF9110
:100560009F918F912F910F900FBE0F901F90189514
:100570001F920F920FB60F9211242F933F938F93D8
:100580009F9380911A01811117C0809186009091EC
:100590008700909319018093180180911A0120918E
:1005A000810030E4839FC0011124822B809381005D
:1005B00081E080931A0115C0809186009091870098
:1005C000909317018093160180911A012091810068
:1005D00030E4839FC0011124822B8093810010920C
:1005E0001A01809116019091170120911801309104
:1005F0001901821B930B9093B9018093B8019F91CD
:100600008F913F912F910F900FBE0F901F901895D3
:10061000CF93DF93CDB7DEB7A1970FB6F894DEBFC7
:100620000FBECDBF789484B5826084BD84B58160EF
:1006300084BD85B5826085BD85B5816085BD8091AD
:100640006E00816080936E00109281008091810025
:10065000826080938100809181008160809381001D
:10066000809180008160809380008091B1008460DF
:100670008093B1008091B00081608093B000809140
:100680007A00846080937A0080917A0082608093FF
:100690007A0080917A00816080937A0080917A005C
:1006A000806880937A001092C10060E088E00E9428
:1006B000D80161E085E00E94D80161E086E00E94F7
:1006C000D801E0912B01F0912C0192E09083E09110
:1006D0002701F09128011082E0912901F0912A016F
:1006E0008FEC808310923301E0912F01F091300163
:1006F00086E08083E0912D01F0912E018081806160
:100700008083E0912D01F0912E01808188608083AB
:10071000E0912D01F0912E01808180688083E0912D
:100720002D01F0912E0180818F7D808310928000B9
:1007300083E4809381001092820081E280936F00B5
:1007400081EA84BD95BD8AE0C82ED12CE12CF12C24
:100750008091B8019091B901892B09F44FC0209183
:10076000B8013091B90140E050E019A28E010F5D4F
:100770001F4FCA01B901A70196010E944404605DA0
:10078000F80162938F01211531054105510589F763
:10079000309761F001900020E9F73197AF01401BDD
:1007A000510BB8018BE191E00E94CE0042E050E095
:1007B00062E171E08BE191E00E94CE008091B8018E
:1007C0009091B901892B39F485E00E94870086E079
:1007D0000E94870013C08091B8019091B901892BC4
:1007E00081F08091B8019091B9018B3F910548F457
:1007F0008091B8019091B90188BD17BC0E94CE01CB
:10080000A7CF8091B8019091B9018B3F9105B0F3CA
:100810008091B8019091B901843F914078F780911F
:10082000B8019091B9018A5F87BD18BCE7CFEBE1B1
:10083000F1E01382128288EE93E0A0E0B0E08483BE
:100840009583A683B78384E091E09183808385ECD0
:1008500090E09587848784EC90E09787868780EC8A
:1008600090E0918B808B81EC90E0938B828B82EC7B
:1008700090E0958B848B86EC90E0978B868B118E25
:10088000128E138E148E0895A1E21A2EAA1BBB1B82
:10089000FD010DC0AA1FBB1FEE1FFF1FA217B3074C
:1008A000E407F50720F0A21BB30BE40BF50B661F62
:1008B000771F881F991F1A9469F760957095809526
:1008C00090959B01AC01BD01CF010895EE0FFF1F74
:1008D0000590F491E02D099481E090E0F8940C9457
:0608E0007104F894FFCF43
:1008E600000000006501CE00FD00AC012E010C01E8
:0608F60020010D0A0000C4
:107E0000112484B714BE81FFF0D085E080938100F7
:107E100082E08093C00088E18093C10086E0809377
:107E2000C20080E18093C4008EE0C9D0259A86E02C
:107E300020E33CEF91E0309385002093840096BBD3
:107E4000B09BFECF1D9AA8958150A9F7CC24DD24C4
:107E500088248394B5E0AB2EA1E19A2EF3E0BF2EE7
:107E6000A2D0813461F49FD0082FAFD0023811F036
:107E7000013811F484E001C083E08DD089C08234E0
:107E800011F484E103C0853419F485E0A6D080C0E4
:107E9000853579F488D0E82EFF2485D0082F10E0AE
:107EA000102F00270E291F29000F111F8ED06801E7
:107EB0006FC0863521F484E090D080E0DECF843638
:107EC00009F040C070D06FD0082F6DD080E0C81688
:107ED00080E7D80618F4F601B7BEE895C0E0D1E017
:107EE00062D089930C17E1F7F0E0CF16F0E7DF06D8
:107EF00018F0F601B7BEE89568D007B600FCFDCFD4
:107F0000A601A0E0B1E02C9130E011968C91119780
:107F100090E0982F8827822B932B1296FA010C0160
:107F200087BEE89511244E5F5F4FF1E0A038BF0790
:107F300051F7F601A7BEE89507B600FCFDCF97BE46
:107F4000E89526C08437B1F42ED02DD0F82E2BD052
:107F50003CD0F601EF2C8F010F5F1F4F84911BD097
:107F6000EA94F801C1F70894C11CD11CFA94CF0C13
:107F7000D11C0EC0853739F428D08EE10CD085E9AC
:107F80000AD08FE07ACF813511F488E018D01DD067
:107F900080E101D065CF982F8091C00085FFFCCF94
:107FA0009093C60008958091C00087FFFCCF809118
:107FB000C00084FD01C0A8958091C6000895E0E648
:107FC000F0E098E1908380830895EDDF803219F02E
:107FD00088E0F5DFFFCF84E1DECF1F93182FE3DFCA
:107FE0001150E9F7F2DF1F91089580E0E8DFEE27F6
:047FF000FF270994CA
:027FFE00040479
:0400000300007E007B
:00000001FF
